{
  "contractName": "Produto",
  "abi": [
    {
      "anonymous": false,
      "inputs": [
        {
          "indexed": false,
          "internalType": "string",
          "name": "nomeProduto",
          "type": "string"
        }
      ],
      "name": "NovoProduto",
      "type": "event"
    },
    {
      "inputs": [
        {
          "internalType": "string",
          "name": "",
          "type": "string"
        }
      ],
      "name": "dono",
      "outputs": [
        {
          "internalType": "address",
          "name": "",
          "type": "address"
        }
      ],
      "stateMutability": "view",
      "type": "function"
    },
    {
      "inputs": [
        {
          "internalType": "uint256",
          "name": "",
          "type": "uint256"
        }
      ],
      "name": "produtos",
      "outputs": [
        {
          "internalType": "string",
          "name": "",
          "type": "string"
        }
      ],
      "stateMutability": "view",
      "type": "function"
    },
    {
      "inputs": [
        {
          "internalType": "string",
          "name": "_nomeProduto",
          "type": "string"
        }
      ],
      "name": "criaProduto",
      "outputs": [],
      "stateMutability": "nonpayable",
      "type": "function"
    }
  ],
  "bytecode": "0x608060405234801561001057600080fd5b50610634806100206000396000f3fe608060405234801561001057600080fd5b50600436106100415760003560e01c806390fd02cc14610046578063d0f45c291461012b578063f4e595de146101e6575b600080fd5b6100ff6004803603602081101561005c57600080fd5b810190808035906020019064010000000081111561007957600080fd5b82018360208201111561008b57600080fd5b803590602001918460018302840111640100000000831117156100ad57600080fd5b91908080601f016020809104026020016040519081016040528093929190818152602001838380828437600081840152601f19601f82011690508083019250505050505050919291929050505061028d565b604051808273ffffffffffffffffffffffffffffffffffffffff16815260200191505060405180910390f35b6101e46004803603602081101561014157600080fd5b810190808035906020019064010000000081111561015e57600080fd5b82018360208201111561017057600080fd5b8035906020019184600183028401116401000000008311171561019257600080fd5b91908080601f016020809104026020016040519081016040528093929190818152602001838380828437600081840152601f19601f8201169050808301925050505050505091929192905050506102d6565b005b610212600480360360208110156101fc57600080fd5b81019080803590602001909291905050506104a8565b6040518080602001828103825283818151815260200191508051906020019080838360005b83811015610252578082015181840152602081019050610237565b50505050905090810190601f16801561027f5780820380516001836020036101000a031916815260200191505b509250505060405180910390f35b6001818051602081018201805184825260208301602085012081835280955050505050506000915054906101000a900473ffffffffffffffffffffffffffffffffffffffff1681565b600081908060018154018082558091505060019003906000526020600020016000909190919091509080519060200190610311929190610561565b50336001826040518082805190602001908083835b602083106103495780518252602082019150602081019050602083039250610326565b6001836020036101000a038019825116818451168082178552505050505050905001915050908152602001604051809103902060006101000a81548173ffffffffffffffffffffffffffffffffffffffff021916908373ffffffffffffffffffffffffffffffffffffffff160217905550600260003373ffffffffffffffffffffffffffffffffffffffff1673ffffffffffffffffffffffffffffffffffffffff168152602001908152602001600020600081548092919060010191905055507f724031cc917277e1d3deb3908e5b1ba497579192635a870222bbc738df530acd816040518080602001828103825283818151815260200191508051906020019080838360005b8381101561046b578082015181840152602081019050610450565b50505050905090810190601f1680156104985780820380516001836020036101000a031916815260200191505b509250505060405180910390a150565b600081815481106104b557fe5b906000526020600020016000915090508054600181600116156101000203166002900480601f0160208091040260200160405190810160405280929190818152602001828054600181600116156101000203166002900480156105595780601f1061052e57610100808354040283529160200191610559565b820191906000526020600020905b81548152906001019060200180831161053c57829003601f168201915b505050505081565b828054600181600116156101000203166002900490600052602060002090601f016020900481019282601f106105a257805160ff19168380011785556105d0565b828001600101855582156105d0579182015b828111156105cf5782518255916020019190600101906105b4565b5b5090506105dd91906105e1565b5090565b5b808211156105fa5760008160009055506001016105e2565b509056fea2646970667358221220fa010e755604bf3209051fda522004a709d31474075bffebf1e6c0d4871b292d64736f6c634300060c0033",
  "immutableReferences": {},
  "source": "// SPDX-License-Identifier: GPL-3.0\r\npragma solidity ^0.6;\r\n\r\ncontract Produto {\r\n    \r\n    event NovoProduto(string nomeProduto);\r\n\r\n    string[] public produtos;\r\n    mapping (string => address) public dono;\r\n    mapping (address => uint) quantidade;\r\n\r\n    modifier apenasDono(string memory _nomeProduto) {\r\n        require(msg.sender == dono[_nomeProduto]);\r\n        _;\r\n    }\r\n    \r\n    function criaProduto(string memory  _nomeProduto) public {\r\n        produtos.push(_nomeProduto)  ;\r\n        dono[_nomeProduto] = msg.sender;\r\n        quantidade[msg.sender]++;\r\n        emit NovoProduto(_nomeProduto);\r\n    }\r\n}",
  "sourcePath": "D:\\git\\curso\\contracts\\nft\\Produto.sol",
  "compiler": {
    "name": "solc",
    "version": "0.6.12+commit.27d51765.Emscripten.clang"
  },
  "schemaVersion": "3.2.5",
  "updatedAt": "2020-10-07T19:31:48.821Z",
  "devdoc": {
    "kind": "dev",
    "methods": {},
    "version": 1
  },
  "userdoc": {
    "kind": "user",
    "methods": {},
    "version": 1
  }
}